:1020000000800020252100000D2100000D2100008E
:1020100000000000000000000000000000000000C0
:102020000000000000000000000000000D21000082
:1020300000000000000000000D21000079210000D8
:102040000D2100000D2100000D2100000D210000D8
:102050000D2100000D2100000D21000011210000C4
:102060000D2100000D2100000D2100000D210000B8
:102070000D2100000D2100000D2100000D210000A8
:102080000D2100000D2100000D2100000D21000098
:10209000000000000D2100000D2100000D210000B6
:1020A0000D2100000D2100000D2100000D21000078
:1020B0000000000010B5064C2378002B07D1054B1B
:1020C000002B02D0044800E000BF0123237010BDA4
:1020D000100000200000000090230000044B10B509
:1020E000002B03D00349044800E000BF10BDC046E8
:1020F00000000000140000209023000010B500F044
:1021000001F800E07047FFF7FEFF7047FEE70000B0
:10211000034B10B51B68002B00D0984710BDC0467C
:102120002C00002070B50F490F4CA14204D100F0E3
:1021300037F8FFF7E3FFFEE70C4D00238D42F6D0A2
:10214000CA18E818A24205D3094B8242EFD00949C8
:10215000002204E0006804331060F1E704C38B42FE
:10216000FCD3E4E7000000201000002094230000CE
:10217000100000203400002010B500F00FF80028F7
:1021800001D100F001F810BD10B5034A1368013306
:10219000136000F0B5F810BD30000020002070473B
:1021A0001E2270B546484749436893431C3A13437F
:1021B000436008238C6923438B61434C434B9C82CF
:1021C0009C8A14439C82DC681442FCD00124404A5F
:1021D00014701578254203D055786DB2002DF8DBC8
:1021E00001249460547864B2002CFBDB394C5460B9
:1021F000547864B2002CFBDB8224E40154805478D0
:1022000064B2002CFBDB02249C840E34DD68254282
:10221000FCD0314CDC621024DD682542FCD09D8C62
:102220002E4C2C439C841024DD682542FCD00224D3
:102230009D8C80262C439C844024DD683542FCD054
:10224000DD682542F9D01024DD682542FCD0002449
:102250009460547864B2002CFBDB214C54605478B9
:1022600064B2002CFBDB1C6A1E4D2C4080251C62D6
:102270001C6AAC431C62032393601B4B536053786E
:102280005BB2002BFBDB0023FF240B72174A4B725F
:102290008B72CB72164B1A60164B174A1B6811686B
:1022A0009A065B01C90E2340520F12020B431343DF
:1022B000124A1385802342681343436070BDC046B1
:1022C00000400041000400400C06000000080040EF
:1022D000000C004001050100B905FF7D040A000063
:1022E00000070300FFFCFFFF03060100006CDC0297
:1022F0000000002024608000206080000040004238
:10230000164A10B51368591C26D0013B1360002BE8
:1023100022D172B6124B134A0433934213D9124A94
:1023200001211000147D0C42FCD02021148BFF31C0
:102330009B085B0021431183D3610C4B1380012365
:10234000027D1A42FCD0BFF34F8F094B094ADA6075
:10235000BFF34F8FC046FDE710BDC046040000200C
:1023600000200000030200000040004102A5FFFF22
:1023700000ED00E00400FA05F8B5C046F8BC08BC62
:102380009E467047F8B5C046F8BC08BC9E467047EC
:042390000000000049
:1023940040420F00FFFFFFFFDD200000B5200000DA
:0400000300002125B3
:00000001FF
